{
  "contractName": "HeritageInsurance",
  "abi": [
    {
      "inputs": [],
      "stateMutability": "nonpayable",
      "type": "constructor"
    },
    {
      "anonymous": false,
      "inputs": [
        {
          "indexed": false,
          "internalType": "uint256",
          "name": "claimId",
          "type": "uint256"
        },
        {
          "indexed": false,
          "internalType": "uint256",
          "name": "payoutAmount",
          "type": "uint256"
        }
      ],
      "name": "ClaimApproved",
      "type": "event"
    },
    {
      "anonymous": false,
      "inputs": [
        {
          "indexed": false,
          "internalType": "uint256",
          "name": "claimId",
          "type": "uint256"
        },
        {
          "indexed": true,
          "internalType": "uint256",
          "name": "policyId",
          "type": "uint256"
        }
      ],
      "name": "ClaimSubmitted",
      "type": "event"
    },
    {
      "anonymous": false,
      "inputs": [
        {
          "indexed": false,
          "internalType": "uint256",
          "name": "policyId",
          "type": "uint256"
        },
        {
          "indexed": true,
          "internalType": "address",
          "name": "policyholder",
          "type": "address"
        },
        {
          "indexed": false,
          "internalType": "string",
          "name": "policyType",
          "type": "string"
        }
      ],
      "name": "PolicyCreated",
      "type": "event"
    },
    {
      "anonymous": false,
      "inputs": [
        {
          "indexed": true,
          "internalType": "uint256",
          "name": "policyId",
          "type": "uint256"
        },
        {
          "indexed": false,
          "internalType": "uint256",
          "name": "amount",
          "type": "uint256"
        }
      ],
      "name": "PremiumPaid",
      "type": "event"
    },
    {
      "inputs": [],
      "name": "admin",
      "outputs": [
        {
          "internalType": "address",
          "name": "",
          "type": "address"
        }
      ],
      "stateMutability": "view",
      "type": "function"
    },
    {
      "inputs": [],
      "name": "claimCount",
      "outputs": [
        {
          "internalType": "uint256",
          "name": "",
          "type": "uint256"
        }
      ],
      "stateMutability": "view",
      "type": "function"
    },
    {
      "inputs": [
        {
          "internalType": "uint256",
          "name": "",
          "type": "uint256"
        }
      ],
      "name": "claims",
      "outputs": [
        {
          "internalType": "uint256",
          "name": "claimId",
          "type": "uint256"
        },
        {
          "internalType": "uint256",
          "name": "policyId",
          "type": "uint256"
        },
        {
          "internalType": "address",
          "name": "claimant",
          "type": "address"
        },
        {
          "internalType": "string",
          "name": "ipfsEvidence",
          "type": "string"
        },
        {
          "internalType": "uint256",
          "name": "claimAmount",
          "type": "uint256"
        },
        {
          "internalType": "bool",
          "name": "isApproved",
          "type": "bool"
        }
      ],
      "stateMutability": "view",
      "type": "function"
    },
    {
      "inputs": [],
      "name": "claimsManager",
      "outputs": [
        {
          "internalType": "address",
          "name": "",
          "type": "address"
        }
      ],
      "stateMutability": "view",
      "type": "function"
    },
    {
      "inputs": [
        {
          "internalType": "uint256",
          "name": "",
          "type": "uint256"
        }
      ],
      "name": "policies",
      "outputs": [
        {
          "internalType": "uint256",
          "name": "policyId",
          "type": "uint256"
        },
        {
          "internalType": "address",
          "name": "policyholder",
          "type": "address"
        },
        {
          "internalType": "string",
          "name": "policyType",
          "type": "string"
        },
        {
          "internalType": "uint256",
          "name": "premium",
          "type": "uint256"
        },
        {
          "internalType": "uint256",
          "name": "startDate",
          "type": "uint256"
        },
        {
          "internalType": "uint256",
          "name": "endDate",
          "type": "uint256"
        },
        {
          "internalType": "string",
          "name": "ipfsHash",
          "type": "string"
        },
        {
          "internalType": "bool",
          "name": "isActive",
          "type": "bool"
        }
      ],
      "stateMutability": "view",
      "type": "function"
    },
    {
      "inputs": [],
      "name": "policyCount",
      "outputs": [
        {
          "internalType": "uint256",
          "name": "",
          "type": "uint256"
        }
      ],
      "stateMutability": "view",
      "type": "function"
    },
    {
      "inputs": [
        {
          "internalType": "uint256",
          "name": "",
          "type": "uint256"
        }
      ],
      "name": "policyPremiums",
      "outputs": [
        {
          "internalType": "uint256",
          "name": "",
          "type": "uint256"
        }
      ],
      "stateMutability": "view",
      "type": "function"
    },
    {
      "inputs": [
        {
          "internalType": "address",
          "name": "_policyholder",
          "type": "address"
        },
        {
          "internalType": "string",
          "name": "_policyType",
          "type": "string"
        },
        {
          "internalType": "uint256",
          "name": "_premium",
          "type": "uint256"
        },
        {
          "internalType": "uint256",
          "name": "_duration",
          "type": "uint256"
        },
        {
          "internalType": "string",
          "name": "_ipfsHash",
          "type": "string"
        }
      ],
      "name": "createPolicy",
      "outputs": [],
      "stateMutability": "nonpayable",
      "type": "function"
    },
    {
      "inputs": [
        {
          "internalType": "uint256",
          "name": "_policyId",
          "type": "uint256"
        },
        {
          "internalType": "string",
          "name": "_ipfsEvidence",
          "type": "string"
        },
        {
          "internalType": "uint256",
          "name": "_claimAmount",
          "type": "uint256"
        }
      ],
      "name": "submitClaim",
      "outputs": [],
      "stateMutability": "nonpayable",
      "type": "function"
    },
    {
      "inputs": [
        {
          "internalType": "uint256",
          "name": "_policyId",
          "type": "uint256"
        }
      ],
      "name": "payPremium",
      "outputs": [],
      "stateMutability": "payable",
      "type": "function"
    },
    {
      "inputs": [
        {
          "internalType": "uint256",
          "name": "_claimId",
          "type": "uint256"
        }
      ],
      "name": "approveClaim",
      "outputs": [],
      "stateMutability": "nonpayable",
      "type": "function"
    },
    {
      "inputs": [],
      "name": "withdrawFunds",
      "outputs": [],
      "stateMutability": "nonpayable",
      "type": "function"
    },
    {
      "inputs": [
        {
          "internalType": "address",
          "name": "_newManager",
          "type": "address"
        }
      ],
      "name": "setClaimsManager",
      "outputs": [],
      "stateMutability": "nonpayable",
      "type": "function"
    }
  ],
  "bytecode": "0x608060405234801561001057600080fd5b50336000806101000a81548173ffffffffffffffffffffffffffffffffffffffff021916908373ffffffffffffffffffffffffffffffffffffffff16021790555033600160006101000a81548173ffffffffffffffffffffffffffffffffffffffff021916908373ffffffffffffffffffffffffffffffffffffffff16021790555061186f806100a16000396000f3fe6080604052600436106100c25760003560e01c8063a888c2cd1161007f578063de54d42911610059578063de54d42914610251578063ec1b350e1461027c578063f851a440146102a5578063fe725f75146102d0576100c2565b8063a888c2cd146101a2578063b983e85d146101e4578063d3e894831461020d576100c2565b80631eb08ba9146100c757806324600fc3146100f25780634364b26e1461010957806346e301351461012557806373f195a91461014e5780638da4d3c914610177575b600080fd5b3480156100d357600080fd5b506100dc61030d565b6040516100e99190611352565b60405180910390f35b3480156100fe57600080fd5b50610107610333565b005b610123600480360381019061011e91906110dc565b61042a565b005b34801561013157600080fd5b5061014c600480360381019061014791906110dc565b61057f565b005b34801561015a57600080fd5b506101756004803603810190610170919061100c565b610745565b005b34801561018357600080fd5b5061018c610817565b604051610199919061142d565b60405180910390f35b3480156101ae57600080fd5b506101c960048036038101906101c491906110dc565b61081d565b6040516101db9695949392919061152d565b60405180910390f35b3480156101f057600080fd5b5061020b60048036038101906102069190611035565b61090e565b005b34801561021957600080fd5b50610234600480360381019061022f91906110dc565b610b4e565b604051610248989796959493929190611448565b60405180910390f35b34801561025d57600080fd5b50610266610cd3565b604051610273919061142d565b60405180910390f35b34801561028857600080fd5b506102a3600480360381019061029e9190611105565b610cd9565b005b3480156102b157600080fd5b506102ba610e9b565b6040516102c79190611352565b60405180910390f35b3480156102dc57600080fd5b506102f760048036038101906102f291906110dc565b610ebf565b604051610304919061142d565b60405180910390f35b600160009054906101000a900473ffffffffffffffffffffffffffffffffffffffff1681565b60008054906101000a900473ffffffffffffffffffffffffffffffffffffffff1673ffffffffffffffffffffffffffffffffffffffff163373ffffffffffffffffffffffffffffffffffffffff16146103c1576040517f08c379a00000000000000000000000000000000000000000000000000000000081526004016103b89061138d565b60405180910390fd5b60008054906101000a900473ffffffffffffffffffffffffffffffffffffffff1673ffffffffffffffffffffffffffffffffffffffff166108fc479081150290604051600060405180830381858888f19350505050158015610427573d6000803e3d6000fd5b50565b60006004600083815260200190815260200160002090503373ffffffffffffffffffffffffffffffffffffffff168160010160009054906101000a900473ffffffffffffffffffffffffffffffffffffffff1673ffffffffffffffffffffffffffffffffffffffff16146104d3576040517f08c379a00000000000000000000000000000000000000000000000000000000081526004016104ca906113ad565b60405180910390fd5b80600301543414610519576040517f08c379a00000000000000000000000000000000000000000000000000000000081526004016105109061136d565b60405180910390fd5b3460066000848152602001908152602001600020600082825461053c9190611612565b92505081905550817f7d285524823001f1a9e0eec4efb8c6350708012b991049fd6dd9250f89c8b25834604051610573919061142d565b60405180910390a25050565b600160009054906101000a900473ffffffffffffffffffffffffffffffffffffffff1673ffffffffffffffffffffffffffffffffffffffff163373ffffffffffffffffffffffffffffffffffffffff161461060f576040517f08c379a0000000000000000000000000000000000000000000000000000000008152600401610606906113cd565b60405180910390fd5b60006005600083815260200190815260200160002090508060050160009054906101000a900460ff1615610678576040517f08c379a000000000000000000000000000000000000000000000000000000000815260040161066f906113ed565b60405180910390fd5b60018160050160006101000a81548160ff0219169083151502179055508060020160009054906101000a900473ffffffffffffffffffffffffffffffffffffffff1673ffffffffffffffffffffffffffffffffffffffff166108fc82600401549081150290604051600060405180830381858888f19350505050158015610703573d6000803e3d6000fd5b507f638d892b8630b775fea5d7a52b209e8bfa1d90c32b57cd37208ac84d4bcd6dcb828260040154604051610739929190611504565b60405180910390a15050565b60008054906101000a900473ffffffffffffffffffffffffffffffffffffffff1673ffffffffffffffffffffffffffffffffffffffff163373ffffffffffffffffffffffffffffffffffffffff16146107d3576040517f08c379a00000000000000000000000000000000000000000000000000000000081526004016107ca9061138d565b60405180910390fd5b80600160006101000a81548173ffffffffffffffffffffffffffffffffffffffff021916908373ffffffffffffffffffffffffffffffffffffffff16021790555050565b60035481565b60056020528060005260406000206000915090508060000154908060010154908060020160009054906101000a900473ffffffffffffffffffffffffffffffffffffffff1690806003018054610872906116f2565b80601f016020809104026020016040519081016040528092919081815260200182805461089e906116f2565b80156108eb5780601f106108c0576101008083540402835291602001916108eb565b820191906000526020600020905b8154815290600101906020018083116108ce57829003601f168201915b5050505050908060040154908060050160009054906101000a900460ff16905086565b60008054906101000a900473ffffffffffffffffffffffffffffffffffffffff1673ffffffffffffffffffffffffffffffffffffffff163373ffffffffffffffffffffffffffffffffffffffff161461099c576040517f08c379a00000000000000000000000000000000000000000000000000000000081526004016109939061138d565b60405180910390fd5b600260008154809291906109af90611724565b919050555060405180610100016040528060025481526020018673ffffffffffffffffffffffffffffffffffffffff1681526020018581526020018481526020014281526020018342610a029190611612565b8152602001828152602001600115158152506004600060025481526020019081526020016000206000820151816000015560208201518160010160006101000a81548173ffffffffffffffffffffffffffffffffffffffff021916908373ffffffffffffffffffffffffffffffffffffffff1602179055506040820151816002019080519060200190610a96929190610ed7565b50606082015181600301556080820151816004015560a0820151816005015560c0820151816006019080519060200190610ad1929190610ed7565b5060e08201518160070160006101000a81548160ff0219169083151502179055509050508473ffffffffffffffffffffffffffffffffffffffff167f21d0178f0cde2aed24022db30651dabafb4bbe431fb787fbc92113304d8e354960025486604051610b3f9291906114d4565b60405180910390a25050505050565b60046020528060005260406000206000915090508060000154908060010160009054906101000a900473ffffffffffffffffffffffffffffffffffffffff1690806002018054610b9d906116f2565b80601f0160208091040260200160405190810160405280929190818152602001828054610bc9906116f2565b8015610c165780601f10610beb57610100808354040283529160200191610c16565b820191906000526020600020905b815481529060010190602001808311610bf957829003601f168201915b505050505090806003015490806004015490806005015490806006018054610c3d906116f2565b80601f0160208091040260200160405190810160405280929190818152602001828054610c69906116f2565b8015610cb65780601f10610c8b57610100808354040283529160200191610cb6565b820191906000526020600020905b815481529060010190602001808311610c9957829003601f168201915b5050505050908060070160009054906101000a900460ff16905088565b60025481565b60006004600085815260200190815260200160002090508060070160009054906101000a900460ff16610d41576040517f08c379a0000000000000000000000000000000000000000000000000000000008152600401610d389061140d565b60405180910390fd5b60036000815480929190610d5490611724565b91905055506040518060c0016040528060035481526020018581526020013373ffffffffffffffffffffffffffffffffffffffff16815260200184815260200183815260200160001515815250600560006003548152602001908152602001600020600082015181600001556020820151816001015560408201518160020160006101000a81548173ffffffffffffffffffffffffffffffffffffffff021916908373ffffffffffffffffffffffffffffffffffffffff1602179055506060820151816003019080519060200190610e2d929190610ed7565b506080820151816004015560a08201518160050160006101000a81548160ff021916908315150217905550905050837f675e9cd1ef5a9bb6971c9f1099eced3c6607be0407bc871bc50a8a7b36832e74600354604051610e8d919061142d565b60405180910390a250505050565b60008054906101000a900473ffffffffffffffffffffffffffffffffffffffff1681565b60066020528060005260406000206000915090505481565b828054610ee3906116f2565b90600052602060002090601f016020900481019282610f055760008555610f4c565b82601f10610f1e57805160ff1916838001178555610f4c565b82800160010185558215610f4c579182015b82811115610f4b578251825591602001919060010190610f30565b5b509050610f599190610f5d565b5090565b5b80821115610f76576000816000905550600101610f5e565b5090565b6000610f8d610f88846115c6565b611595565b905082815260208101848484011115610fa557600080fd5b610fb08482856116b0565b509392505050565b600081359050610fc78161180b565b92915050565b600082601f830112610fde57600080fd5b8135610fee848260208601610f7a565b91505092915050565b60008135905061100681611822565b92915050565b60006020828403121561101e57600080fd5b600061102c84828501610fb8565b91505092915050565b600080600080600060a0868803121561104d57600080fd5b600061105b88828901610fb8565b955050602086013567ffffffffffffffff81111561107857600080fd5b61108488828901610fcd565b945050604061109588828901610ff7565b93505060606110a688828901610ff7565b925050608086013567ffffffffffffffff8111156110c357600080fd5b6110cf88828901610fcd565b9150509295509295909350565b6000602082840312156110ee57600080fd5b60006110fc84828501610ff7565b91505092915050565b60008060006060848603121561111a57600080fd5b600061112886828701610ff7565b935050602084013567ffffffffffffffff81111561114557600080fd5b61115186828701610fcd565b925050604061116286828701610ff7565b9150509250925092565b61117581611668565b82525050565b6111848161167a565b82525050565b6000611195826115f6565b61119f8185611601565b93506111af8185602086016116bf565b6111b8816117fa565b840191505092915050565b60006111d0601883611601565b91507f496e636f7272656374207072656d69756d20616d6f756e7400000000000000006000830152602082019050919050565b6000611210600a83611601565b91507f4f6e6c792061646d696e000000000000000000000000000000000000000000006000830152602082019050919050565b6000611250601083611601565b91507f4e6f7420706f6c696379686f6c646572000000000000000000000000000000006000830152602082019050919050565b6000611290601383611601565b91507f4f6e6c7920636c61696d73206d616e61676572000000000000000000000000006000830152602082019050919050565b60006112d0601683611601565b91507f436c61696d20616c726561647920617070726f766564000000000000000000006000830152602082019050919050565b6000611310600f83611601565b91507f506f6c69637920696e61637469766500000000000000000000000000000000006000830152602082019050919050565b61134c816116a6565b82525050565b6000602082019050611367600083018461116c565b92915050565b60006020820190508181036000830152611386816111c3565b9050919050565b600060208201905081810360008301526113a681611203565b9050919050565b600060208201905081810360008301526113c681611243565b9050919050565b600060208201905081810360008301526113e681611283565b9050919050565b60006020820190508181036000830152611406816112c3565b9050919050565b6000602082019050818103600083015261142681611303565b9050919050565b60006020820190506114426000830184611343565b92915050565b60006101008201905061145e600083018b611343565b61146b602083018a61116c565b818103604083015261147d818961118a565b905061148c6060830188611343565b6114996080830187611343565b6114a660a0830186611343565b81810360c08301526114b8818561118a565b90506114c760e083018461117b565b9998505050505050505050565b60006040820190506114e96000830185611343565b81810360208301526114fb818461118a565b90509392505050565b60006040820190506115196000830185611343565b6115266020830184611343565b9392505050565b600060c0820190506115426000830189611343565b61154f6020830188611343565b61155c604083018761116c565b818103606083015261156e818661118a565b905061157d6080830185611343565b61158a60a083018461117b565b979650505050505050565b6000604051905081810181811067ffffffffffffffff821117156115bc576115bb6117cb565b5b8060405250919050565b600067ffffffffffffffff8211156115e1576115e06117cb565b5b601f19601f8301169050602081019050919050565b600081519050919050565b600082825260208201905092915050565b600061161d826116a6565b9150611628836116a6565b9250827fffffffffffffffffffffffffffffffffffffffffffffffffffffffffffffffff0382111561165d5761165c61176d565b5b828201905092915050565b600061167382611686565b9050919050565b60008115159050919050565b600073ffffffffffffffffffffffffffffffffffffffff82169050919050565b6000819050919050565b82818337600083830152505050565b60005b838110156116dd5780820151818401526020810190506116c2565b838111156116ec576000848401525b50505050565b6000600282049050600182168061170a57607f821691505b6020821081141561171e5761171d61179c565b5b50919050565b600061172f826116a6565b91507fffffffffffffffffffffffffffffffffffffffffffffffffffffffffffffffff8214156117625761176161176d565b5b600182019050919050565b7f4e487b7100000000000000000000000000000000000000000000000000000000600052601160045260246000fd5b7f4e487b7100000000000000000000000000000000000000000000000000000000600052602260045260246000fd5b7f4e487b7100000000000000000000000000000000000000000000000000000000600052604160045260246000fd5b6000601f19601f8301169050919050565b61181481611668565b811461181f57600080fd5b50565b61182b816116a6565b811461183657600080fd5b5056fea26469706673582212208e8bc02d16e966f40a193658cb603a9fe463d06831b5f558691424301ae7f8da64736f6c63430008000033",
  "immutableReferences": {},
  "source": "// SPDX-License-Identifier: MIT\npragma solidity ^0.8.0;\n\ncontract HeritageInsurance {\n    // Structs\n    struct Policy {\n        uint256 policyId;\n        address policyholder;\n        string policyType;\n        uint256 premium; // in wei\n        uint256 startDate;\n        uint256 endDate;\n        string ipfsHash;\n        bool isActive;\n    }\n\n    struct Claim {\n        uint256 claimId;\n        uint256 policyId;\n        address claimant;\n        string ipfsEvidence;\n        uint256 claimAmount; // in wei\n        bool isApproved;\n    }\n\n    // State Variables\n    address public admin;\n    address public claimsManager;\n    uint256 public policyCount;\n    uint256 public claimCount;\n    mapping(uint256 => Policy) public policies;\n    mapping(uint256 => Claim) public claims;\n    mapping(uint256 => uint256) public policyPremiums; // Tracks total premiums paid per policy (NEW)\n\n    // Events\n    event PolicyCreated(uint256 policyId, address indexed policyholder, string policyType);\n    event ClaimSubmitted(uint256 claimId, uint256 indexed policyId);\n    event ClaimApproved(uint256 claimId, uint256 payoutAmount);\n    event PremiumPaid(uint256 indexed policyId, uint256 amount); // Updated event\n\n    // Modifiers\n    modifier onlyAdmin() {\n        require(msg.sender == admin, \"Only admin\");\n        _;\n    }\n\n    modifier onlyClaimsManager() {\n        require(msg.sender == claimsManager, \"Only claims manager\");\n        _;\n    }\n\n    // Constructor\n    constructor() {\n        admin = msg.sender;\n        claimsManager = msg.sender; // Default: admin is also claims manager\n    }\n\n    // --------------------------\n    // Existing Functions (Your Code)\n    // --------------------------\n    function createPolicy(\n        address _policyholder,\n        string memory _policyType,\n        uint256 _premium,\n        uint256 _duration,\n        string memory _ipfsHash\n    ) external onlyAdmin {\n        policyCount++;\n        policies[policyCount] = Policy(\n            policyCount,\n            _policyholder,\n            _policyType,\n            _premium,\n            block.timestamp,\n            block.timestamp + _duration,\n            _ipfsHash,\n            true\n        );\n        emit PolicyCreated(policyCount, _policyholder, _policyType);\n    }\n\n    function submitClaim(uint256 _policyId, string memory _ipfsEvidence, uint256 _claimAmount) external {\n        Policy storage policy = policies[_policyId];\n        require(policy.isActive, \"Policy inactive\");\n        claimCount++;\n        claims[claimCount] = Claim(\n            claimCount,\n            _policyId,\n            msg.sender,\n            _ipfsEvidence,\n            _claimAmount,\n            false\n        );\n        emit ClaimSubmitted(claimCount, _policyId);\n    }\n\n    // --------------------------\n    // Updated/New Functions\n    // --------------------------\n    // Pay premium in ETH (updated to track total premiums)\n    function payPremium(uint256 _policyId) external payable {\n        Policy storage policy = policies[_policyId];\n        require(policy.policyholder == msg.sender, \"Not policyholder\");\n        require(msg.value == policy.premium, \"Incorrect premium amount\");\n        policyPremiums[_policyId] += msg.value; // Track cumulative premiums (NEW)\n        emit PremiumPaid(_policyId, msg.value);\n    }\n\n    // Approve claim (new function)\n    function approveClaim(uint256 _claimId) external onlyClaimsManager {\n        Claim storage claim = claims[_claimId];\n        require(!claim.isApproved, \"Claim already approved\");\n        claim.isApproved = true;\n        payable(claim.claimant).transfer(claim.claimAmount);\n        emit ClaimApproved(_claimId, claim.claimAmount);\n    }\n\n    // Withdraw ETH (existing function)\n    function withdrawFunds() external onlyAdmin {\n        payable(admin).transfer(address(this).balance);\n    }\n\n    // --------------------------\n    // Helper Functions (Optional)\n    // --------------------------\n    function setClaimsManager(address _newManager) external onlyAdmin {\n        claimsManager = _newManager;\n    }\n}",
  "sourcePath": "/home/zoro/Documents/Projects/heritage-insurance-dapp/client/blockchain/contracts/HeritageInsurance.sol",
  "compiler": {
    "name": "solc",
    "version": "0.8.0+commit.c7dfd78e.Emscripten.clang"
  },
  "schemaVersion": "3.4.16",
  "updatedAt": "2025-03-12T14:48:14.284Z",
  "devdoc": {
    "kind": "dev",
    "methods": {},
    "version": 1
  },
  "userdoc": {
    "kind": "user",
    "methods": {},
    "version": 1
  }
}